{
  "contractName": "reviewing",
  "abi": [
    {
      "constant": true,
      "inputs": [
        {
          "name": "",
          "type": "address"
        },
        {
          "name": "",
          "type": "uint256"
        }
      ],
      "name": "reviewlike",
      "outputs": [
        {
          "name": "",
          "type": "uint8"
        }
      ],
      "payable": false,
      "stateMutability": "view",
      "type": "function"
    },
    {
      "constant": true,
      "inputs": [
        {
          "name": "",
          "type": "address"
        },
        {
          "name": "",
          "type": "uint256"
        }
      ],
      "name": "reviews",
      "outputs": [
        {
          "name": "",
          "type": "string"
        }
      ],
      "payable": false,
      "stateMutability": "view",
      "type": "function"
    },
    {
      "inputs": [],
      "payable": false,
      "stateMutability": "nonpayable",
      "type": "constructor"
    },
    {
      "constant": false,
      "inputs": [
        {
          "name": "tell",
          "type": "string"
        }
      ],
      "name": "WriteReview",
      "outputs": [
        {
          "name": "",
          "type": "uint256"
        },
        {
          "name": "",
          "type": "address"
        },
        {
          "name": "",
          "type": "bool"
        }
      ],
      "payable": false,
      "stateMutability": "nonpayable",
      "type": "function"
    },
    {
      "constant": false,
      "inputs": [
        {
          "name": "RemoveId",
          "type": "uint256"
        },
        {
          "name": "RemoveAddress",
          "type": "address"
        }
      ],
      "name": "RemoveReview",
      "outputs": [
        {
          "name": "",
          "type": "bool"
        }
      ],
      "payable": false,
      "stateMutability": "nonpayable",
      "type": "function"
    },
    {
      "constant": true,
      "inputs": [
        {
          "name": "getting",
          "type": "address"
        },
        {
          "name": "__id",
          "type": "uint256"
        }
      ],
      "name": "SeeReview",
      "outputs": [
        {
          "name": "",
          "type": "string"
        }
      ],
      "payable": false,
      "stateMutability": "view",
      "type": "function"
    },
    {
      "constant": true,
      "inputs": [
        {
          "name": "_add",
          "type": "address"
        }
      ],
      "name": "YourCount",
      "outputs": [
        {
          "name": "",
          "type": "uint256"
        }
      ],
      "payable": false,
      "stateMutability": "view",
      "type": "function"
    },
    {
      "constant": false,
      "inputs": [
        {
          "name": "likeadd",
          "type": "address"
        },
        {
          "name": "__id",
          "type": "uint256"
        }
      ],
      "name": "LikeReview",
      "outputs": [
        {
          "name": "say",
          "type": "string"
        }
      ],
      "payable": false,
      "stateMutability": "nonpayable",
      "type": "function"
    },
    {
      "constant": true,
      "inputs": [
        {
          "name": "str",
          "type": "string"
        }
      ],
      "name": "SearchComment",
      "outputs": [
        {
          "name": "",
          "type": "uint256"
        },
        {
          "name": "",
          "type": "address"
        }
      ],
      "payable": false,
      "stateMutability": "view",
      "type": "function"
    }
  ],
  "bytecode": "0x6080604052600060075534801561001557600080fd5b5033600660006101000a81548173ffffffffffffffffffffffffffffffffffffffff021916908373ffffffffffffffffffffffffffffffffffffffff1602179055506111af806100666000396000f30060806040526004361061008e576000357c0100000000000000000000000000000000000000000000000000000000900463ffffffff1680630dae839f1461009357806317571ba6146100f857806338d71fba1461015f578063639b5d821461020f57806367c1e701146102ca5780636db3328f14610321578063876a5e7a146103e7578063f88aefd8146104ad575b600080fd5b34801561009f57600080fd5b506100de60048036038101908080359060200190929190803573ffffffffffffffffffffffffffffffffffffffff169060200190929190505050610573565b604051808215151515815260200191505060405180910390f35b34801561010457600080fd5b50610143600480360381019080803573ffffffffffffffffffffffffffffffffffffffff1690602001909291908035906020019092919050505061064d565b604051808260ff1660ff16815260200191505060405180910390f35b34801561016b57600080fd5b506101c6600480360381019080803590602001908201803590602001908080601f016020809104026020016040519081016040528093929190818152602001838380828437820191505050505050919291929050505061067c565b604051808381526020018273ffffffffffffffffffffffffffffffffffffffff1673ffffffffffffffffffffffffffffffffffffffff1681526020019250505060405180910390f35b34801561021b57600080fd5b50610276600480360381019080803590602001908201803590602001908080601f01602080910402602001604051908101604052809392919081815260200183838082843782019150505050505091929192905050506108a6565b604051808481526020018373ffffffffffffffffffffffffffffffffffffffff1673ffffffffffffffffffffffffffffffffffffffff16815260200182151515158152602001935050505060405180910390f35b3480156102d657600080fd5b5061030b600480360381019080803573ffffffffffffffffffffffffffffffffffffffff169060200190929190505050610b2a565b6040518082815260200191505060405180910390f35b34801561032d57600080fd5b5061036c600480360381019080803573ffffffffffffffffffffffffffffffffffffffff16906020019092919080359060200190929190505050610b73565b6040518080602001828103825283818151815260200191508051906020019080838360005b838110156103ac578082015181840152602081019050610391565b50505050905090810190601f1680156103d95780820380516001836020036101000a031916815260200191505b509250505060405180910390f35b3480156103f357600080fd5b50610432600480360381019080803573ffffffffffffffffffffffffffffffffffffffff16906020019092919080359060200190929190505050610c30565b6040518080602001828103825283818151815260200191508051906020019080838360005b83811015610472578082015181840152602081019050610457565b50505050905090810190601f16801561049f5780820380516001836020036101000a031916815260200191505b509250505060405180910390f35b3480156104b957600080fd5b506104f8600480360381019080803573ffffffffffffffffffffffffffffffffffffffff16906020019092919080359060200190929190505050610d22565b6040518080602001828103825283818151815260200191508051906020019080838360005b8381101561053857808201518184015260208101905061051d565b50505050905090810190601f1680156105655780820380516001836020036101000a031916815260200191505b509250505060405180910390f35b6000600660009054906101000a900473ffffffffffffffffffffffffffffffffffffffff1673ffffffffffffffffffffffffffffffffffffffff163373ffffffffffffffffffffffffffffffffffffffff161415610642576000808373ffffffffffffffffffffffffffffffffffffffff1673ffffffffffffffffffffffffffffffffffffffff168152602001908152602001600020600084815260200190815260200160002060006106269190611096565b6007600081548092919060019003919050555060019050610647565b600090505b92915050565b60016020528160005260406000206020528060005260406000206000915091509054906101000a900460ff1681565b60008060008090505b6007548111151561089f57836040516020018082805190602001908083835b6020831015156106c957805182526020820191506020810190506020830392506106a4565b6001836020036101000a0380198251168184511680821785525050505050509050019150506040516020818303038152906040526040518082805190602001908083835b602083101515610732578051825260208201915060208101905060208303925061070d565b6001836020036101000a0380198251168184511680821785525050505050509050019150506040518091039020600019166004600083815260200190815260200160002060405160200180828054600181600116156101000203166002900480156107d45780601f106107b25761010080835404028352918201916107d4565b820191906000526020600020905b8154815290600101906020018083116107c0575b50509150506040516020818303038152906040526040518082805190602001908083835b60208310151561081d57805182526020820191506020810190506020830392506107f8565b6001836020036101000a038019825116818451168082178552505050505050905001915050604051809103902060001916141561089257806005600083815260200190815260200160002060009054906101000a900473ffffffffffffffffffffffffffffffffffffffff16925092506108a0565b8080600101915050610685565b5b50915091565b6000806000803390506001600360008373ffffffffffffffffffffffffffffffffffffffff1673ffffffffffffffffffffffffffffffffffffffff16815260200190815260200160002060008282540192505081905550846000808373ffffffffffffffffffffffffffffffffffffffff1673ffffffffffffffffffffffffffffffffffffffff1681526020019081526020016000206000600360008573ffffffffffffffffffffffffffffffffffffffff1673ffffffffffffffffffffffffffffffffffffffff168152602001908152602001600020548152602001908152602001600020908051906020019061099f9291906110de565b506000600160008373ffffffffffffffffffffffffffffffffffffffff1673ffffffffffffffffffffffffffffffffffffffff1681526020019081526020016000206000600360008573ffffffffffffffffffffffffffffffffffffffff1673ffffffffffffffffffffffffffffffffffffffff16815260200190815260200160002054815260200190815260200160002060006101000a81548160ff021916908360ff160217905550600760008154809291906001019190505550846004600060075481526020019081526020016000209080519060200190610a849291906110de565b503360056000600754815260200190815260200160002060006101000a81548173ffffffffffffffffffffffffffffffffffffffff021916908373ffffffffffffffffffffffffffffffffffffffff160217905550600360008273ffffffffffffffffffffffffffffffffffffffff1673ffffffffffffffffffffffffffffffffffffffff16815260200190815260200160002054816001935093509350509193909250565b6000600360008373ffffffffffffffffffffffffffffffffffffffff1673ffffffffffffffffffffffffffffffffffffffff168152602001908152602001600020549050919050565b6000602052816000526040600020602052806000526040600020600091509150508054600181600116156101000203166002900480601f016020809104026020016040519081016040528092919081815260200182805460018160011615610100020316600290048015610c285780601f10610bfd57610100808354040283529160200191610c28565b820191906000526020600020905b815481529060010190602001808311610c0b57829003601f168201915b505050505081565b60606000808473ffffffffffffffffffffffffffffffffffffffff1673ffffffffffffffffffffffffffffffffffffffff16815260200190815260200160002060008381526020019081526020016000208054600181600116156101000203166002900480601f016020809104026020016040519081016040528092919081815260200182805460018160011615610100020316600290048015610d155780601f10610cea57610100808354040283529160200191610d15565b820191906000526020600020905b815481529060010190602001808311610cf857829003601f168201915b5050505050905092915050565b60606000600260003373ffffffffffffffffffffffffffffffffffffffff1673ffffffffffffffffffffffffffffffffffffffff1681526020019081526020016000206000808673ffffffffffffffffffffffffffffffffffffffff1673ffffffffffffffffffffffffffffffffffffffff16815260200190815260200160002060008581526020019081526020016000206040518082805460018160011615610100020316600290048015610e0f5780601f10610ded576101008083540402835291820191610e0f565b820191906000526020600020905b815481529060010190602001808311610dfb575b5050915050908152602001604051809103902060009054906101000a900460ff1660ff1614156110575760018060008573ffffffffffffffffffffffffffffffffffffffff1673ffffffffffffffffffffffffffffffffffffffff168152602001908152602001600020600084815260200190815260200160002060008282829054906101000a900460ff160192506101000a81548160ff021916908360ff1602179055506001600260003373ffffffffffffffffffffffffffffffffffffffff1673ffffffffffffffffffffffffffffffffffffffff1681526020019081526020016000206000808673ffffffffffffffffffffffffffffffffffffffff1673ffffffffffffffffffffffffffffffffffffffff16815260200190815260200160002060008581526020019081526020016000206040518082805460018160011615610100020316600290048015610f9f5780601f10610f7d576101008083540402835291820191610f9f565b820191906000526020600020905b815481529060010190602001808311610f8b575b5050915050908152602001604051809103902060006101000a81548160ff021916908360ff160217905550608060405190810160405280604681526020017f45697468657220796f75206c696b652068697320726576696577206f7220596f81526020017f75206d757374206265207265616c6c79206c696b696e6720746861742050657281526020017f736f6e203a7000000000000000000000000000000000000000000000000000008152509050809050611090565b6040805190810160405280600481526020017f6f6f70730000000000000000000000000000000000000000000000000000000081525090505b92915050565b50805460018160011615610100020316600290046000825580601f106110bc57506110db565b601f0160209004906000526020600020908101906110da919061115e565b5b50565b828054600181600116156101000203166002900490600052602060002090601f016020900481019282601f1061111f57805160ff191683800117855561114d565b8280016001018555821561114d579182015b8281111561114c578251825591602001919060010190611131565b5b50905061115a919061115e565b5090565b61118091905b8082111561117c576000816000905550600101611164565b5090565b905600a165627a7a723058200a09d8ab530f97e4ed1291c8444a127a13d9d62bd0ec6a61f8034bfd0b7267ef0029",
  "source": "pragma solidity ^0.4.18;\n//pragma experimental ABIEncoderV2;\n\n\ncontract reviewing {\n    \n    \n    mapping(address => mapping(uint256 =>string)) public reviews; // This is for storing the review w.r.t address and review count from that address\n    mapping(address => mapping(uint256 =>uint8)) public reviewlike; // This is for storing if a particular person has liked a comment for not using that person's account address and review count and liked or not(0 for not liked and 1 for liked)\n    mapping(address=>mapping(string=>uint8)) likerlimit; // An address can like a review only once. Storing if that address has already liked.\n    mapping(address => uint256) YourCounter; // Total reviews\n    mapping(uint256 =>string) searchreview; // Unique Id for each review.\n    mapping(uint256=>address)uniquereview; // Unique Id's w.r.t addresses.\n    address owner;\n    uint256 countVar=0; \n    constructor() public {\n        \n        owner = msg.sender;\n        \n    }\n    \n    // function to write the review\n   function WriteReview(string tell) public returns (uint256,address,bool) {\n      address reviewer=msg.sender;\n           \n        YourCounter[reviewer] +=1;\n       \n       reviews[reviewer][YourCounter[reviewer]] = tell;\n       reviewlike[reviewer][YourCounter[reviewer]] =0;\n       countVar++;\n       searchreview[countVar] = tell;\n       uniquereview[countVar] = msg.sender;\n       \n       return (YourCounter[reviewer],reviewer,true);\n      } \n   \n   \n    // function to delete the review\n   function RemoveReview(uint256 RemoveId,address RemoveAddress) public returns(bool) {\n       \n       if(msg.sender==owner) {\n           \n           delete reviews[RemoveAddress][RemoveId];\n            countVar--;\n            return true;\n            YourCounter[RemoveAddress] -=1;\n       }\n       return false;\n   }\n       \n    // function to see the review\n     function SeeReview(address getting, uint256 __id) public view returns(string) {\n         \n         return(reviews[getting][__id]);\n     }\n     \n    // function to get total reviews\n     function YourCount(address _add) public view returns(uint256) {\n         return (YourCounter[_add]);\n     }\n     \n    // function to like the review\n     function LikeReview(address likeadd,uint256 __id) public returns(string say){\n         \n         if(likerlimit[msg.sender][reviews[likeadd][__id]] ==0)  {\n             reviewlike[likeadd][__id] +=1;\n             likerlimit[msg.sender][reviews[likeadd][__id]] =1;\n             say= \"Either you like his review or You must be really liking that Person :p\";\n             return say;\n            }\n        \n         return \"oops\";\n       \n     }\n     \n     \n        // function to search for the review\n         function SearchComment(string str) public view returns(uint256,address) {\n         \n         \n         \n            for(uint i=0;i<=countVar;i++) {\n              \n                if(keccak256(abi.encodePacked((searchreview[i]))) == keccak256(abi.encodePacked((str)))){\n                    return (i,uniquereview[i]);\n                }\n                \n                }\n               \n            }\n             \n         }\n         ",
  "sourcePath": "/Users/sriharshabingi/Desktop/ratingDAPP/contracts/rating.sol",
  "compiler": {
    "name": "solc",
    "version": "0.4.24+commit.e67f0147.Emscripten.clang"
  },
  "schemaVersion": "2.0.1",
  "updatedAt": "2018-09-02T14:41:52.247Z"
}